:1000000012C024C023C022C021C020C01FC01EC0F7
:100010001DC01CC01BC01AC019C018C017C016C014
:1000200015C014C013C011241FBECFE5D4E0DEBF3D
:10003000CDBF10E0A0E6B0E0EEE5F1E002C0059033
:100040000D92AA38B107D9F74ED087C0D9CF90BD4D
:1000500089B988E18AB98EE880BD08955F9BFECF9B
:100060008CB1089588BBC098C19A8FEC97E0019736
:10007000F1F700C00000C1980895CF93C82F807F8A
:10008000F1DF8C2F8295807FEDDFCF91089582E0A4
:10009000F4DF88E2F2DF86E0F0DF8CE0EEDF089547
:1000A00088BBC09AC19A8FEC97E00197F1F700C026
:1000B0000000C1980895CF93C82F807FF1DF8C2F67
:1000C0008295807FEDDFCF910895CF93DF93EC0190
:1000D0008881882329F02196EEDF89918111FCCF58
:1000E000DF91CF9108958FEF87BB8FE084BB83E3CF
:1000F00090E0ADDFCCDF09E016E0DAE0C5E0AEDF8E
:10010000813439F488E0B9DF80E690E0DEDFC5BBFA
:10011000F6CF823439F488E0B0DF88E690E0D5DFAE
:10012000D5BBEDCF833439F488E0A7DF81E790E0D9
:10013000CCDF15BBE4CF843439F488E09EDF86E75A
:1001400090E0C3DF05BBDBCF8534C9F688E095DFDF
:0E0150008CE790E0BADF15BAD2CFF894FFCF5B
:10015E00464F5257415244004241434B574152443D
:10016E00004C45465400524947485400756E6B6E1C
:0A017E006F776E2076616C756500E6
:00000001FF
