S027000062617369632E696E632E6465632E6F6E2E6B65792E70726573732E6F6E6C792E737265636C
S113000012C024C023C022C021C020C01FC01EC0F3
S11300101DC01CC01BC01AC019C018C017C016C010
S113002015C014C013C011241FBECFE5D4E0DEBF39
S1130030CDBF10E0A0E6B0E0E4E5F1E002C0059039
S11300400D92A437B107D9F702D082C0D9CFCF938C
S1130050DF93CDB7DEB764970FB6F894DEBF0FBE5B
S1130060CDBF87B3836087BBBA988FEF81BB84E130
S1130070E0E6F0E0DE01119601900D928A95E1F739
S113008020E030E0C12CD12C51E042E010E070E0DF
S113009004C0212F372FC12ED72ED601AA0FBB1F84
S11300A0EE24E394F12CEC0EFD1EAE0DBF1DF90100
S11300B0EE0FFF1FEE0DFF1D58BB6C9162BB87EA6C
S11300C091E60197F1F700C0000048BB608162BB74
S11300D087EA91E60197F1F700C00000B29BECCFEC
S11300E0D601AA0FBB1FE1E0F0E0EC0FFD1FAE0F3D
S11300F0BF1FF901EE0FFF1FEE24E394F12CEC0E69
S1130100FD1EEE0DFF1D58BB6C9162BB87EA91E6A4
S11301100197F1F700C0000048BB608162BB87EA29
S113012091E60197F1F700C00000B299ECCF9FEF80
S1130130C91AD90AEAE0CE16D10409F0AECF2F5F6E
S11301403F4F2A30310509F4A4CFC12ED72EA5CFB5
S1070150F894FFCF4D
S11301543F0006005B004F0066006D007D00070051
S10701647F006F00A5
S9030000FC
