S0180000696E74657272757074204C4544206F6E2E737265632D
S113000012C024C018C017C016C015C014C013C035
S113001012C011C010C00FC00EC00DC00CC00BC068
S11300200AC009C008C011241FBECFE5D4E0DEBF5A
S1130030CDBF02D026C0E4CF81E187BB80E48BBF73
S113004083E085BF789480E188BBFECF1F920F9236
S11300500FB60F9211242F938F939F9381E088BB47
S11300602FE986E891E0215080409040E1F700C0FC
S113007000009F918F912F910F900FBE0F901F90B2
S10900801895F894FFCF6F
S9030000FC
