S0170000382D377365672E61732E636C6F636B2E73726563F6
S113000012C024C023C022C021C020C01FC01EC0F3
S11300101DC01CC01BC01AC019C018C017C016C010
S113002015C014C013C011241FBECFE5D4E0DEBF39
S1130030CDBF10E0A0E6B0E0E8E4F2E002C0059035
S11300400D92AA37B107D9F702D0FCC0D9CFCF930C
S1130050DF93CDB7DEB7AE970FB6F894DEBF0FBE11
S1130060CDBF8FEF87BB81BB8AE1E0E6F0E0DE0124
S1130070119601900D928A95E1F71EA21DA2CE0160
S113008001969E8F8D8FFC0198A38F8FCF010C96C4
S11300909CA38BA39F8D9FA3E8A1E8A799A7EAA798
S11300A0792E4E2EEE24E394F12CEC0EFD1EF4E199
S11300B0EF0EF11C0F2EFFE75F2EF02D0F2EFFEB3E
S11300C06F2EF02D0F2EF5E03F2EF02D212CFCA6E7
S11300D0EBA6AAC058BAEDA5FEA5C080C2BAE1EE4F
S11300E0F4E03197F1F700C0000068BACC90C2BACE
S11300F0E1EEF4E03197F1F700C0000048BAD2BA5B
S1130100E1EEF4E03197F1F700C0000078BAF901AC
S1130110C080C2BAE1EEF4E03197F1F700C000000C
S113012088BAFA01C080C2BAE1EEF4E03197F1F77F
S113013000C0000098BAD2BAE1EEF4E03197F1F7CA
S113014000C00000A8BAFB01C080C2BAE1EEF4E02E
S11301503197F1F700C00000B8BAF801C080C2BA04
S1130160E1EEF4E03197F1F700C000000197009749
S113017009F0B0CFEDA5FEA53296EE15FF0529F0E6
S1130180832D922DFEA7EDA7A5CF12968BA19CA13E
S1130190A817B90779F0E9A1FAA10F2EFBEF9F2E5A
S11301A0F02D0F2EFDEFAF2EF02D0F2EFEEFBF2EF4
S11301B0F02DE6CF2E5F3F4F2E153F0571F0A9A11C
S11301C0BAA16894DD24D6F80F2EFFEE7F2EF02D11
S11301D00F2EF7EF8F2EF02DDECF4E5F5F4FEBA18A
S11301E0FCA14E175F0739F029A53AA50F2EFFEDA4
S11301F04F2EF02DE4CF79A04AA06E5F7F4F8B8DF8
S11302009C8D6817790739F04FA158A5EBA4FCA47D
S113021079A24AA2E9CFEDA1FEA13196FEA3EDA3F6
S1130220329714F01EA21DA2CE014B969C8F8B8F89
S1130230BE016F5F7F4F0DA11EA1000F111F060F9E
S10B0240171FE2CFF894FFCF71
S11302483F0006005B004F0066006D007D0007005C
S10D02587F006F003F0006005B000A
S9030000FC
