S01D000062617369632E636F756E7465722E696E632E6465632E7372656315
S113000012C024C023C022C021C020C01FC01EC0F3
S11300101DC01CC01BC01AC019C018C017C016C010
S113002015C014C013C011241FBECFE5D4E0DEBF39
S1130030CDBF10E0A0E6B0E0E2E0F1E002C0059040
S11300400D92A437B107D9F702D059C0D9CFCF93B5
S1130050DF93CDB7DEB764970FB6F894DEBF0FBE5B
S1130060CDBF87B3836087BBBA988FEF81BB84E130
S1130070E0E6F0E0DE01119601900D928A95E1F739
S113008020E030E080E090E061E052E0A0E070E049
S113009004C02A2F372F8A2F972F68BBFC01EE0F3D
S11300A0FF1F01E010E00C0F1D1FE00FF11F408146
S11300B042BBE7EAF1E63197F1F700C0000058BB14
S11300C0F901EE0FFF1F01E010E00C0F1D1FE00F00
S11300D0F11F408142BBE7EAF1E63197F1F700C036
S11300E00000B29BDACF01968A309105B1F62F5FFA
S11300F03F4F2A30310569F28A2F972FCECFF894DB
S1050100FFCF2B
S11301023F0006005B004F0066006D007D000700A3
S10701127F006F00F7
S9030000FC
