S01500006469676974616C20636C6F636B2E7372656305
S113000012C024C023C022C021C020C01FC01EC0F3
S11300101DC01CC01BC01AC019C018C017C016C010
S113002015C014C013C011241FBECFE5D4E0DEBF39
S1130030CDBF10E0A0E6B0E0E0E9F2E002C0059038
S11300400D92AE36B107D9F721D020C1D9CF82BBEA
S1130050C098C19A83EC99E00197F1F700C00000C1
S1130060C198089588E3F3DF86E0F1DF8CE0EFDFE9
S113007081E0EDDF089582BBC09AC19A83EC99E0D8
S11300800197F1F700C00000C1980895CF93DF9362
S1130090CDB7DEB76B970FB6F894DEBF0FBECDBFFA
S11300A08FEF81BB87B3836087BBDCDF8DE0E0E645
S11300B0F0E0DE01119601900D928A95E1F721E0BE
S11300C02A8B1B8A2C8B80E08D8B2E8B8F8B288F19
S11300D0898F44244394512C84E8B9DF80E3CBDF37
S11300E085E8B5DF80E3C7DF86E8B1DF8AE3C3DFF5
S11300F087E8ADDF80E3BFDF88E8A9DF80E3BBDF0B
S113010089E8A5DF8AE3B7DF8AE8A1DF80E3B3DF0C
S11301108BE89DDF80E3AFDF612C712C188A198A8C
S113012090E09E8720E02F8703C066246394712C9F
S113013084E88DDFE1E0F0E0EC0FFD1FE60DF71D34
S1130140808199DF812C912C2E843F847B8E6A8E52
S1130150788C698C02C08A889B8885E878DFE1E026
S1130160F0E0EC0FFD1FE80DF91D808184DFA88805
S1130170B98802C0AC88BD8887E869DFE1E0F0E0B7
S1130180EC0FFD1FEA0DFB1D808175DFCE84DF843B
S113019002C0CE88DF8888E85ADFE1E0F0E0EC0FA7
S11301A0FD1FEC0DFD1D808166DFEE84FF8402C01F
S11301B0E72CF62C8AE84BDFE1E0F0E0EC0FFD1FC2
S11301C0EE0DFF1D808157DF022D132D02C0042D7B
S11301D0152D8BE83CDFE1E0F0E0EC0FFD1FE00FB4
S11301E0F11F808148DF8FE79FE422E18150904036
S11301F02040E1F700C000000A30110541F30F5F11
S11302001F4F0A3011052CF386E0E816F10481F241
S11302109FEFE91AF90A26E0E216F1045CF28AE09B
S1130220C816D10409F4B5CF9FEFC91AD90A2AE038
S1130230C216D1040CF4AFCF86E0A816B10409F4B9
S113024099CF9FEFA91AB90A26E0A216B1040CF4BB
S113025093CF8DE08816910409F47DCF9FEF891A1E
S1130260990A2DE0821691040CF477CF6A8C7B8C6A
S113027082E06816710409F458CF9FEF691A790A6D
S113028022E0621671040CF453CF26CFF894FFCF0A
S11102903031323334353637383930313200BC
S9030000FC
