:1000000012C019C018C017C016C015C014C013C044
:1000100012C011C010C00FC00EC00DC00CC00BC06C
:100020000AC009C008C011241FBECFE5D4E0DEBF5E
:10003000CDBF02D06FC0E4CF8EEF87BB8FEF81BB07
:1000400080E090E0F0E0E0E0DFE3BFE7A7E07DE7FD
:100050006DE656E64FE43BE526E002C08F2F9E2F6B
:10006000B09BFECF8130910511F422BB48C0823095
:10007000910511F432BB43C08330910511F442BBAA
:100080003EC08430910511F452BB39C085309105D2
:1000900011F462BB34C08630910511F472BB2FC0DD
:1000A0008730910511F4A2BB2AC08830910511F464
:1000B000B2BB25C08930910571F40FE602BB1FE386
:1000C0008DE093E0115080409040E1F700C00000C7
:1000D0008F2F9E2FC5CF8A30910511F4D2BB0FC050
:1000E000CFE30DE013E0C15000401040E1F700C045
:1000F000000001968A30910509F4B0CFB1CFCFE36B
:100100000DE013E0C15000401040E1F700C00000D6
:080110000196A6CFF894FFCF81
:00000001FF
