S01100004C454420424C494E4B2E73726563AE
S113000012C019C018C017C016C015C014C013C040
S113001012C011C010C00FC00EC00DC00CC00BC068
S11300200AC009C008C011241FBECFE5D4E0DEBF5A
S1130030CDBF02D0A2C0E4CF8FEF87BB61E052E016
S113004044E038E020E190E280E470E868BBAFE38C
S1130050EDE0F3E0A150E040F040E1F700C0000023
S113006058BBAFE3EDE0F3E0A150E040F040E1F72E
S113007000C0000048BBAFE3EDE0F3E0A150E04076
S1130080F040E1F700C0000038BBAFE3EDE0F3E07F
S1130090A150E040F040E1F700C0000028BBAFE30E
S11300A0EDE0F3E0A150E040F040E1F700C00000D3
S11300B098BBAFE3EDE0F3E0A150E040F040E1F79E
S11300C000C0000088BBAFE3EDE0F3E0A150E040E6
S11300D0F040E1F700C0000078BBAFE3EDE0F3E0EF
S11300E0A150E040F040E1F700C0000088BBAFE35E
S11300F0EDE0F3E0A150E040F040E1F700C0000083
S113010098BBAFE3EDE0F3E0A150E040F040E1F74D
S113011000C0000028BBAFE3EDE0F3E0A150E040F5
S1130120F040E1F700C0000038BBAFE3EDE0F3E0DE
S1130130A150E040F040E1F700C0000048BBAFE34D
S1130140EDE0F3E0A150E040F040E1F700C0000032
S113015058BBAFE3EDE0F3E0A150E040F040E1F73D
S113016000C0000068BBAFE3EDE0F3E0A150E04065
S1110170F040E1F700C0000069CFF894FFCF23
S9030000FC
