:1000000012C019C018C017C016C015C014C013C044
:1000100012C011C010C00FC00EC00DC00CC00BC06C
:100020000AC009C008C011241FBECFE5D4E0DEBF5E
:10003000CDBF0DD0BBC1E4CF90BD89B988E18AB9ED
:100040008EE880BD08955D9BFECF8CB90895CF9357
:10005000DF9300D000D0CDB7DEB717BA83E390E0CE
:10006000EBDF84E08EBD6894332435F80F2EF0E882
:100070008F2EF6E99F2EF8E9AF2EB12CF02D0F2E22
:10008000F0E4CF2EF2E4DF2EFFE0EF2EF12CF02D86
:100090000AE010E01DBC1CBC08B605FEFDCF8EB505
:1000A00080648EBD38BE08B605FEFDCF88B780627D
:1000B00088BF8EB58F708EBD86B597B508B605FE24
:1000C000FDCF28B7206228BF2EB520642EBD26B5EF
:1000D00037B508B605FEFDCF48B7406248BF4EB5FC
:1000E0004F704EBD66B577B5A901481B590B5C83AF
:1000F0004B83FB01E21BF30BFA83E983681B790B4B
:10010000882777FD8095982FA5019401FDD02B01BC
:100110003C0180E3820F97DFB201882777FD80954D
:10012000982FA7019601F0D02B013C0180E3820FAC
:100130008ADFB201882777FD8095982F20EA36E87C
:1001400041E050E0E1D02B013C0180E3820F7BDFF6
:10015000C20160E177E2C5D03C0180E3860F73DF26
:10016000C30168EE73E0BDD03C0180E3860F6BDF16
:10017000C30164E670E0B5D03C0180E3860F63DF25
:10018000C301B801AED0782E80E3860F5CDF80E338
:10019000870D59DF832D57DF832D55DF2B813C8160
:1001A000B901882777FD8095982FA5019401ACD0DF
:1001B0002B013C0180E3820F46DFB201882777FDE7
:1001C0008095982FA70196019FD02B013C0180E3D9
:1001D000820F39DFB201882777FD8095982F20EABA
:1001E00036E841E050E090D02B013C0180E3820FE3
:1001F0002ADFC20160E177E274D03C0180E3860F20
:1002000022DFC30168EE73E06CD03C0180E3860F0F
:100210001ADFC30164E670E064D03C0180E3860F1E
:1002200012DFC301B8015DD0782E80E3860F0BDFAB
:1002300080E3870D08DF832D06DF832D04DF4981EE
:100240005A81BA01882777FD8095982FA5019401DE
:100250005BD02B013C0180E3820FF5DEB2018827E1
:1002600077FD8095982FA70196014ED02B013C0178
:1002700080E3820FE8DEB201882777FD8095982F12
:1002800020EA36E841E050E03FD02B013C0180E31A
:10029000820FD9DEC20160E177E223D03C0180E326
:1002A000860FD1DEC30168EE73E01BD03C0180E312
:1002B000860FC9DEC30164E670E013D03C0180E321
:1002C000860FC1DEC301B8010CD0782E80E3860F03
:1002D000BADE80E3870DB7DE832DB5DE832DB3DE76
:1002E000D9CE97FB072E16F4009406D077FD08D0E0
:1002F00027D007FC05D03EF4909581959F4F089537
:10030000709561957F4F0895052E97FB16F4009424
:100310000FD057FD05D028D007FC02D046F408C006
:1003200050954095309521953F4F4F4F5F4F089521
:1003300090958095709561957F4F8F4F9F4F089551
:10034000AA1BBB1B51E107C0AA1FBB1FA617B707FB
:1003500010F0A61BB70B881F991F5A95A9F7809517
:100360009095BC01CD010895A1E21A2EAA1BBB1BDA
:10037000FD010DC0AA1FBB1FEE1FFF1FA217B30771
:10038000E407F50720F0A21BB30BE40BF50B661F87
:10039000771F881F991F1A9469F76095709580954B
:1003A00090959B01AC01BD01CF010895F894FFCF5A
:00000001FF
