:1000000012C019C018C017C016C015C014C013C044
:1000100012C011C010C00FC00EC00DC00CC00BC06C
:100020000AC009C008C011241FBECFE5D4E0DEBF5E
:10003000CDBF35D058C2E4CF82BB9098919A89EF5A
:1000400090E00197F1F700C0000091980895CF93D8
:10005000C82F807FF1DF8C2F8295807FEDDFCF91DD
:10006000089582E0F4DF88E2F2DF86E0F0DF8CE0E2
:10007000EEDF089582BB909A919A89EF90E0019704
:10008000F1F700C0000091980895CF93C82F807FAA
:10009000F1DF8C2F8295807FEDDFCF9108958FEF78
:1000A00081BB87BBDEDFC0E0D0E0312C212C0F2EDE
:1000B000F4E66F2E712CF02D0F2EFAE04F2E512CFE
:1000C000F02DC1C02097B1F580E487B980E8BFDF8B
:1000D00086B1876E86B9349BFECF64B175B188272F
:1000E00077FD8095982FE9D028E431EE4AEF5EE362
:1000F00048D1B0D04B015C018B01772324F08BE217
:10010000C4DFC40106C08DE2C0DF882799278819A3
:100110009909B301C1D15C0180E3860FB6DFC50147
:10012000B201BAD1B82E80E3860FAFDF80E38B0D2A
:10013000ACDF6EC0C130D105B1F581E487B986E886
:1001400086DF86B1876E86B9349BFECF64B175B108
:10015000882777FD8095982FB0D028E431EE4AEFBC
:100160005EE30FD177D04B015C017B01772324F054
:100170008BE28BDFC40106C08DE287DF88279927D9
:1001800088199909B30188D15C0180E3860F7DDF6E
:10019000C501B20181D1B82E80E3860F76DF80E3FE
:1001A0008B0D73DF35C082E487B98CE850DF86B1F0
:1001B000876E86B9349BFECF64B175B1882777FD11
:1001C0008095982F7AD028E431EE4AEF5EE3D9D0BB
:1001D00041D04B015C016B01772324F08BE255DFAA
:1001E000C40106C08DE251DF882799278819990933
:1001F000B30152D15C0180E3860F47DFC501B20134
:100200004BD1B82E80E3860F40DF80E38B0D3DDFBE
:1002100018BA0D33110514F0C09A04C00233110549
:100220000CF4C19A8DE3E816F10414F0C39A05C0EA
:1002300082E3E816F1040CF4C29AC601C2970B9748
:1002400008F0C49A2196C330D1050CF43BCFC32DDE
:10025000D22D3ACF04D06894B1118DC0089570D0DA
:1002600088F09F5790F0B92F9927B751A0F0D1F09F
:10027000660F771F881F991F1AF0BA95C9F712C029
:10028000B13081F077D0B1E0089574C0672F782F36
:100290008827B85F39F0B93FCCF386957795679595
:1002A000B395D9F73EF490958095709561957F4F01
:1002B0008F4F9F4F0895E89409C097FB3EF49095A7
:1002C0008095709561957F4F8F4F9F4F9923A9F02F
:1002D000F92F96E9BB279395F695879577956795BE
:1002E000B795F111F8CFFAF4BB0F11F460FF1BC002
:1002F0006F5F7F4F8F4F9F4F16C0882311F096E995
:1003000011C0772321F09EE8872F762F05C0662342
:1003100071F096E8862F70E060E02AF09A95660FFB
:10032000771F881FDAF7880F9695879597F90895B4
:1003300057FD9058440F551F59F05F3F71F0479596
:10034000880F97FB991F61F09F3F79F0879508957B
:10035000121613061406551FF2CF4695F1DF08C09A
:10036000161617061806991FF1CF869571056105B7
:1003700008940895E894BB2766277727CB0197F95F
:1003800008950BD078C069D028F06ED018F095236E
:1003900009F05AC05FC01124EECFCADFA0F3959FC9
:1003A000D1F3950F50E0551F629FF001729FBB275C
:1003B000F00DB11D639FAA27F00DB11DAA1F649F08
:1003C0006627B00DA11D661F829F2227B00DA11DBB
:1003D000621F739FB00DA11D621F839FA00D611D41
:1003E000221F749F3327A00D611D231F849F600D62
:1003F000211D822F762F6A2F11249F5750408AF09B
:10040000E1F088234AF0EE0FFF1FBB1F661F771F26
:10041000881F91505040A9F79E3F510570F014C0BD
:10042000AACF5F3FECF3983EDCF38695779567950E
:10043000B795F795E7959F5FC1F7FE2B880F911D44
:100440009695879597F9089597F99F6780E870E0EA
:1004500060E008959FEF80EC089500240A9416163A
:10046000170618060906089500240A9412161306A2
:10047000140605060895092E0394000C11F4882330
:1004800052F0BB0F40F4BF2B11F460FF04C06F5F4C
:100490007F4F8F4F9F4F089597FB072E16F40094C0
:1004A00006D077FD08D00BD007FC05D03EF4909520
:1004B00081959F4F0895709561957F4F0895AA1B70
:1004C000BB1B51E107C0AA1FBB1FA617B70710F03F
:1004D000A61BB70B881F991F5A95A9F78095909571
:0A04E000BC01CD010895F894FFCF90
:00000001FF
