S01E0000377365672E776974682E627574746F6E2E61727261792E737265638F
S113000012C024C023C022C021C020C01FC01EC0F3
S11300101DC01CC01BC01AC019C018C017C016C010
S113002015C014C013C011241FBECFE5D4E0DEBF39
S1130030CDBF10E0A0E6B0E0E2ECF0E002C0059035
S11300400D92A437B107D9F702D039C0D9CFCF93D5
S1130050DF93CDB7DEB764970FB6F894DEBF0FBE5B
S1130060CDBFB8988FEF81BB84E1E0E6F0E0DE011C
S1130070119601900D928A95E1F780E090E040E0BE
S113008030E002C0842F932FB09BFECFFC01EE0F13
S1130090FF1F61E070E06C0F7D1FE60FF71F2081EA
S11300A022BB7FE32DE053E0715020405040E1F744
S11300B000C0000001968A30910531F7E3CFF8942F
S10500C0FFCF6C
S11300C26F007F0007007D006D0066004F005B003B
S10700D206003F00E1
S9030000FC
