:1000000012C024C03EC017C016C015C014C013C013
:1000100012C011C010C00FC00EC00DC00CC00BC06C
:100020000AC009C008C011241FBECFE5D4E0DEBF5E
:10003000CDBF02D041C0E4CF87E087BB80EC8BBF4F
:100040008BE085BF789484E088BBFECF1F920F922F
:100050000FB60F9211242F938F939F9381E088BB4B
:100060002FE986E891E0215080409040E1F700C000
:1000700000009F918F912F910F900FBE0F901F90B6
:1000800018951F920F920FB60F9211242F938F93F2
:100090009F9382E088BB2FE986E891E02150804061
:1000A0009040E1F700C000009F918F912F910F9039
:0C00B0000FBE0F901F901895F894FFCF22
:00000001FF
