S013000032627574746F6E314C45442E737265633D
S113000012C019C018C017C016C015C014C013C040
S113001012C011C010C00FC00EC00DC00CC00BC068
S11300200AC009C008C011241FBECFE5D4E0DEBF5A
S1130030CDBF02D04DC0E4CF81E087BB8CEF81BB44
S113004020B341E080B3837090E05FE764E87EE131
S1130050515060407040E1F700C00000009761F427
S113006018BA28B38FE392E45FE081509040504087
S1130070E1F700C00000E6CF8130910559F428BBB8
S11300806FE372E48FE0615070408040E1F700C09C
S11300900000D8CF8230910569F4209528BB28B39D
S11300A09FE352E46FE0915050406040E1F700C09C
S11300B00000C8CF039731F648BB28B37FE382E43E
S11300C09FE0715080409040E1F700C00000BACF3B
S10700D0F894FFCFCE
S9030000FC
