:1000000012C019C018C017C016C015C014C013C044
:1000100012C011C010C00FC00EC00DC00CC00BC06C
:100020000AC009C008C011241FBECFE5D4E0DEBF5E
:10003000CDBF02D0D6C0E4CF8FEF81BBFFE3E6E0B7
:100040007BE56FE456E64DE63DE727E09FE78FE668
:1000500012BAAFE3BDE0C3E0A150B040C040E1F749
:1000600000C00000F2BBAFE3BDE0C3E0A150B04070
:10007000C040E1F700C0000012BAAFE3BDE0C3E04A
:10008000A150B040C040E1F700C00000E2BBAFE3C8
:10009000BDE0C3E0A150B040C040E1F700C00000A7
:1000A00012BAAFE3BDE0C3E0A150B040C040E1F7F9
:1000B00000C0000072BBAFE3BDE0C3E0A150B040A0
:1000C000C040E1F700C0000012BAAFE3BDE0C3E0FA
:1000D000A150B040C040E1F700C0000062BBAFE3F8
:1000E000BDE0C3E0A150B040C040E1F700C0000057
:1000F00012BAAFE3BDE0C3E0A150B040C040E1F7A9
:1001000000C0000052BBAFE3BDE0C3E0A150B0406F
:10011000C040E1F700C0000012BAAFE3BDE0C3E0A9
:10012000A150B040C040E1F700C0000042BBAFE3C7
:10013000BDE0C3E0A150B040C040E1F700C0000006
:1001400012BAAFE3BDE0C3E0A150B040C040E1F758
:1001500000C0000032BBAFE3BDE0C3E0A150B0403F
:10016000C040E1F700C0000012BAAFE3BDE0C3E059
:10017000A150B040C040E1F700C0000022BBAFE397
:10018000BDE0C3E0A150B040C040E1F700C00000B6
:1001900012BAAFE3BDE0C3E0A150B040C040E1F708
:1001A00000C0000092BBAFE3BDE0C3E0A150B0408F
:1001B000C040E1F700C0000012BAAFE3BDE0C3E009
:1001C000A150B040C040E1F700C0000082BBAFE3E7
:1001D000BDE0C3E0A150B040C040E1F700C0000066
:0601E00037CFF894FFCFB9
:00000001FF
